{"abi":[{"type":"constructor","inputs":[],"stateMutability":"nonpayable"},{"type":"receive","stateMutability":"payable"},{"type":"function","name":"BridgeFinalizeERC20","inputs":[{"name":"sourceChainId","type":"uint256","internalType":"uint256"},{"name":"destChainId","type":"uint256","internalType":"uint256"},{"name":"from","type":"address","internalType":"address"},{"name":"to","type":"address","internalType":"address"},{"name":"sourceTokenAddress","type":"address","internalType":"address"},{"name":"destTokenAddress","type":"address","internalType":"address"},{"name":"amount","type":"uint256","internalType":"uint256"},{"name":"_fee","type":"uint256","internalType":"uint256"},{"name":"_nonce","type":"uint256","internalType":"uint256"}],"outputs":[{"name":"","type":"bool","internalType":"bool"}],"stateMutability":"nonpayable"},{"type":"function","name":"BridgeFinalizeETH","inputs":[{"name":"sourceChainId","type":"uint256","internalType":"uint256"},{"name":"destChainId","type":"uint256","internalType":"uint256"},{"name":"sourceTokenAddress","type":"address","internalType":"address"},{"name":"from","type":"address","internalType":"address"},{"name":"to","type":"address","internalType":"address"},{"name":"amount","type":"uint256","internalType":"uint256"},{"name":"_fee","type":"uint256","internalType":"uint256"},{"name":"_nonce","type":"uint256","internalType":"uint256"}],"outputs":[{"name":"","type":"bool","internalType":"bool"}],"stateMutability":"payable"},{"type":"function","name":"BridgeInitiateERC20","inputs":[{"name":"sourceChainId","type":"uint256","internalType":"uint256"},{"name":"destChainId","type":"uint256","internalType":"uint256"},{"name":"sourceTokenAddress","type":"address","internalType":"address"},{"name":"destTokenAddress","type":"address","internalType":"address"},{"name":"to","type":"address","internalType":"address"},{"name":"value","type":"uint256","internalType":"uint256"}],"outputs":[{"name":"","type":"bool","internalType":"bool"}],"stateMutability":"nonpayable"},{"type":"function","name":"BridgeInitiateETH","inputs":[{"name":"sourceChainId","type":"uint256","internalType":"uint256"},{"name":"destChainId","type":"uint256","internalType":"uint256"},{"name":"destTokenAddress","type":"address","internalType":"address"},{"name":"to","type":"address","internalType":"address"}],"outputs":[{"name":"","type":"bool","internalType":"bool"}],"stateMutability":"payable"},{"type":"function","name":"ClaimAllReward","inputs":[],"outputs":[],"stateMutability":"nonpayable"},{"type":"function","name":"ClaimbyID","inputs":[{"name":"i","type":"uint256","internalType":"uint256"}],"outputs":[],"stateMutability":"nonpayable"},{"type":"function","name":"CompletePoolAndNew","inputs":[{"name":"CompletePools","type":"tuple[]","internalType":"struct IPoolManager.Pool[]","components":[{"name":"startTimeStamp","type":"uint32","internalType":"uint32"},{"name":"endTimeStamp","type":"uint32","internalType":"uint32"},{"name":"token","type":"address","internalType":"address"},{"name":"TotalAmount","type":"uint256","internalType":"uint256"},{"name":"TotalFee","type":"uint256","internalType":"uint256"},{"name":"TotalFeeClaimed","type":"uint256","internalType":"uint256"},{"name":"IsCompleted","type":"bool","internalType":"bool"}]}],"outputs":[],"stateMutability":"payable"},{"type":"function","name":"DepositAndStakingERC20","inputs":[{"name":"_token","type":"address","internalType":"address"},{"name":"_amount","type":"uint256","internalType":"uint256"}],"outputs":[],"stateMutability":"nonpayable"},{"type":"function","name":"DepositAndStakingETH","inputs":[],"outputs":[],"stateMutability":"payable"},{"type":"function","name":"ETH_ADDRESS","inputs":[],"outputs":[{"name":"","type":"address","internalType":"address"}],"stateMutability":"view"},{"type":"function","name":"FeePoolValue","inputs":[{"name":"","type":"address","internalType":"address"}],"outputs":[{"name":"","type":"uint256","internalType":"uint256"}],"stateMutability":"view"},{"type":"function","name":"FundingPoolBalance","inputs":[{"name":"","type":"address","internalType":"address"}],"outputs":[{"name":"","type":"uint256","internalType":"uint256"}],"stateMutability":"view"},{"type":"function","name":"IsSupportToken","inputs":[{"name":"","type":"address","internalType":"address"}],"outputs":[{"name":"","type":"bool","internalType":"bool"}],"stateMutability":"view"},{"type":"function","name":"IsSupportedChainId","inputs":[{"name":"","type":"uint256","internalType":"uint256"}],"outputs":[{"name":"","type":"bool","internalType":"bool"}],"stateMutability":"view"},{"type":"function","name":"MinStakeAmount","inputs":[{"name":"","type":"address","internalType":"address"}],"outputs":[{"name":"","type":"uint256","internalType":"uint256"}],"stateMutability":"view"},{"type":"function","name":"MinTransferAmount","inputs":[],"outputs":[{"name":"","type":"uint256","internalType":"uint256"}],"stateMutability":"view"},{"type":"function","name":"PerFee","inputs":[],"outputs":[{"name":"","type":"uint256","internalType":"uint256"}],"stateMutability":"view"},{"type":"function","name":"Pools","inputs":[{"name":"","type":"address","internalType":"address"},{"name":"","type":"uint256","internalType":"uint256"}],"outputs":[{"name":"startTimeStamp","type":"uint32","internalType":"uint32"},{"name":"endTimeStamp","type":"uint32","internalType":"uint32"},{"name":"token","type":"address","internalType":"address"},{"name":"TotalAmount","type":"uint256","internalType":"uint256"},{"name":"TotalFee","type":"uint256","internalType":"uint256"},{"name":"TotalFeeClaimed","type":"uint256","internalType":"uint256"},{"name":"IsCompleted","type":"bool","internalType":"bool"}],"stateMutability":"view"},{"type":"function","name":"QuickSendAssertToUser","inputs":[{"name":"_token","type":"address","internalType":"address"},{"name":"to","type":"address","internalType":"address"},{"name":"_amount","type":"uint256","internalType":"uint256"}],"outputs":[],"stateMutability":"nonpayable"},{"type":"function","name":"SupportTokens","inputs":[{"name":"","type":"uint256","internalType":"uint256"}],"outputs":[{"name":"","type":"address","internalType":"address"}],"stateMutability":"view"},{"type":"function","name":"Users","inputs":[{"name":"","type":"address","internalType":"address"},{"name":"","type":"uint256","internalType":"uint256"}],"outputs":[{"name":"isWithdrawed","type":"bool","internalType":"bool"},{"name":"token","type":"address","internalType":"address"},{"name":"StartPoolId","type":"uint256","internalType":"uint256"},{"name":"EndPoolId","type":"uint256","internalType":"uint256"},{"name":"Amount","type":"uint256","internalType":"uint256"}],"stateMutability":"view"},{"type":"function","name":"WithdrawAll","inputs":[],"outputs":[],"stateMutability":"nonpayable"},{"type":"function","name":"WithdrawByID","inputs":[{"name":"i","type":"uint256","internalType":"uint256"}],"outputs":[],"stateMutability":"nonpayable"},{"type":"function","name":"WithdrawPoolManagerAssetTo","inputs":[{"name":"_token","type":"address","internalType":"address"},{"name":"to","type":"address","internalType":"address"},{"name":"_amount","type":"uint256","internalType":"uint256"}],"outputs":[],"stateMutability":"nonpayable"},{"type":"function","name":"assertBalanceMessager","inputs":[],"outputs":[{"name":"","type":"address","internalType":"address"}],"stateMutability":"view"},{"type":"function","name":"depositErc20ToBridge","inputs":[{"name":"tokenAddress","type":"address","internalType":"address"},{"name":"amount","type":"uint256","internalType":"uint256"}],"outputs":[{"name":"","type":"bool","internalType":"bool"}],"stateMutability":"nonpayable"},{"type":"function","name":"depositEthToBridge","inputs":[],"outputs":[{"name":"","type":"bool","internalType":"bool"}],"stateMutability":"payable"},{"type":"function","name":"fetchFundingPoolBalance","inputs":[{"name":"token","type":"address","internalType":"address"}],"outputs":[{"name":"","type":"uint256","internalType":"uint256"}],"stateMutability":"view"},{"type":"function","name":"getPool","inputs":[{"name":"_token","type":"address","internalType":"address"},{"name":"_index","type":"uint256","internalType":"uint256"}],"outputs":[{"name":"","type":"tuple","internalType":"struct IPoolManager.Pool","components":[{"name":"startTimeStamp","type":"uint32","internalType":"uint32"},{"name":"endTimeStamp","type":"uint32","internalType":"uint32"},{"name":"token","type":"address","internalType":"address"},{"name":"TotalAmount","type":"uint256","internalType":"uint256"},{"name":"TotalFee","type":"uint256","internalType":"uint256"},{"name":"TotalFeeClaimed","type":"uint256","internalType":"uint256"},{"name":"IsCompleted","type":"bool","internalType":"bool"}]}],"stateMutability":"view"},{"type":"function","name":"getPoolLength","inputs":[{"name":"_token","type":"address","internalType":"address"}],"outputs":[{"name":"","type":"uint256","internalType":"uint256"}],"stateMutability":"view"},{"type":"function","name":"getPrincipal","inputs":[],"outputs":[{"name":"","type":"tuple[]","internalType":"struct IPoolManager.KeyValuePair[]","components":[{"name":"key","type":"address","internalType":"address"},{"name":"value","type":"uint256","internalType":"uint256"}]}],"stateMutability":"view"},{"type":"function","name":"getReward","inputs":[],"outputs":[{"name":"","type":"tuple[]","internalType":"struct IPoolManager.KeyValuePair[]","components":[{"name":"key","type":"address","internalType":"address"},{"name":"value","type":"uint256","internalType":"uint256"}]}],"stateMutability":"view"},{"type":"function","name":"getUser","inputs":[{"name":"_user","type":"address","internalType":"address"}],"outputs":[{"name":"","type":"tuple[]","internalType":"struct IPoolManager.User[]","components":[{"name":"isWithdrawed","type":"bool","internalType":"bool"},{"name":"token","type":"address","internalType":"address"},{"name":"StartPoolId","type":"uint256","internalType":"uint256"},{"name":"EndPoolId","type":"uint256","internalType":"uint256"},{"name":"Amount","type":"uint256","internalType":"uint256"}]}],"stateMutability":"view"},{"type":"function","name":"getUserLength","inputs":[{"name":"_user","type":"address","internalType":"address"}],"outputs":[{"name":"","type":"uint256","internalType":"uint256"}],"stateMutability":"view"},{"type":"function","name":"initialize","inputs":[{"name":"initialOwner","type":"address","internalType":"address"},{"name":"_messageManager","type":"address","internalType":"address"},{"name":"_relayerAddress","type":"address","internalType":"address"},{"name":"_withdrawManager","type":"address","internalType":"address"}],"outputs":[],"stateMutability":"nonpayable"},{"type":"function","name":"messageManager","inputs":[],"outputs":[{"name":"","type":"address","internalType":"contract IMessageManager"}],"stateMutability":"view"},{"type":"function","name":"owner","inputs":[],"outputs":[{"name":"","type":"address","internalType":"address"}],"stateMutability":"view"},{"type":"function","name":"pause","inputs":[],"outputs":[],"stateMutability":"nonpayable"},{"type":"function","name":"paused","inputs":[],"outputs":[{"name":"","type":"bool","internalType":"bool"}],"stateMutability":"view"},{"type":"function","name":"periodTime","inputs":[],"outputs":[{"name":"","type":"uint32","internalType":"uint32"}],"stateMutability":"view"},{"type":"function","name":"relayerAddress","inputs":[],"outputs":[{"name":"","type":"address","internalType":"address"}],"stateMutability":"view"},{"type":"function","name":"renounceOwnership","inputs":[],"outputs":[],"stateMutability":"nonpayable"},{"type":"function","name":"setMinStakeAmount","inputs":[{"name":"_token","type":"address","internalType":"address"},{"name":"_amount","type":"uint256","internalType":"uint256"}],"outputs":[],"stateMutability":"nonpayable"},{"type":"function","name":"setMinTransferAmount","inputs":[{"name":"_MinTransferAmount","type":"uint256","internalType":"uint256"}],"outputs":[],"stateMutability":"nonpayable"},{"type":"function","name":"setPerFee","inputs":[{"name":"_PerFee","type":"uint256","internalType":"uint256"}],"outputs":[],"stateMutability":"nonpayable"},{"type":"function","name":"setSupportERC20Token","inputs":[{"name":"ERC20Address","type":"address","internalType":"address"},{"name":"isValid","type":"bool","internalType":"bool"}],"outputs":[],"stateMutability":"nonpayable"},{"type":"function","name":"setSupportToken","inputs":[{"name":"_token","type":"address","internalType":"address"},{"name":"_isSupport","type":"bool","internalType":"bool"},{"name":"startTimes","type":"uint32","internalType":"uint32"}],"outputs":[],"stateMutability":"nonpayable"},{"type":"function","name":"setValidChainId","inputs":[{"name":"chainId","type":"uint256","internalType":"uint256"},{"name":"isValid","type":"bool","internalType":"bool"}],"outputs":[],"stateMutability":"nonpayable"},{"type":"function","name":"stakingMessageNumber","inputs":[],"outputs":[{"name":"","type":"uint256","internalType":"uint256"}],"stateMutability":"view"},{"type":"function","name":"transferOwnership","inputs":[{"name":"newOwner","type":"address","internalType":"address"}],"outputs":[],"stateMutability":"nonpayable"},{"type":"function","name":"unpause","inputs":[],"outputs":[],"stateMutability":"nonpayable"},{"type":"function","name":"withdrawErc20FromBridge","inputs":[{"name":"tokenAddress","type":"address","internalType":"address"},{"name":"withdrawAddress","type":"address","internalType":"address"},{"name":"amount","type":"uint256","internalType":"uint256"}],"outputs":[{"name":"","type":"bool","internalType":"bool"}],"stateMutability":"nonpayable"},{"type":"function","name":"withdrawEthFromBridge","inputs":[{"name":"withdrawAddress","type":"address","internalType":"address payable"},{"name":"amount","type":"uint256","internalType":"uint256"}],"outputs":[{"name":"","type":"bool","internalType":"bool"}],"stateMutability":"payable"},{"type":"function","name":"withdrawManager","inputs":[],"outputs":[{"name":"","type":"address","internalType":"address"}],"stateMutability":"view"},{"type":"event","name":"ClaimReward","inputs":[{"name":"_user","type":"address","indexed":false,"internalType":"address"},{"name":"startPoolId","type":"uint256","indexed":false,"internalType":"uint256"},{"name":"EndPoolId","type":"uint256","indexed":false,"internalType":"uint256"},{"name":"chainId","type":"uint256","indexed":false,"internalType":"uint256"},{"name":"_token","type":"address","indexed":false,"internalType":"address"},{"name":"Reward","type":"uint256","indexed":false,"internalType":"uint256"}],"anonymous":false},{"type":"event","name":"CompletePoolEvent","inputs":[{"name":"token","type":"address","indexed":true,"internalType":"address"},{"name":"poolIndex","type":"uint256","indexed":false,"internalType":"uint256"},{"name":"chainId","type":"uint256","indexed":false,"internalType":"uint256"}],"anonymous":false},{"type":"event","name":"DepositToken","inputs":[{"name":"tokenAddress","type":"address","indexed":true,"internalType":"address"},{"name":"sender","type":"address","indexed":true,"internalType":"address"},{"name":"amount","type":"uint256","indexed":false,"internalType":"uint256"}],"anonymous":false},{"type":"event","name":"FinalizeERC20","inputs":[{"name":"sourceChainId","type":"uint256","indexed":false,"internalType":"uint256"},{"name":"destChainId","type":"uint256","indexed":false,"internalType":"uint256"},{"name":"sourceTokenAddress","type":"address","indexed":false,"internalType":"address"},{"name":"destTokenAddress","type":"address","indexed":false,"internalType":"address"},{"name":"from","type":"address","indexed":true,"internalType":"address"},{"name":"to","type":"address","indexed":true,"internalType":"address"},{"name":"value","type":"uint256","indexed":false,"internalType":"uint256"}],"anonymous":false},{"type":"event","name":"FinalizeETH","inputs":[{"name":"sourceChainId","type":"uint256","indexed":false,"internalType":"uint256"},{"name":"destChainId","type":"uint256","indexed":false,"internalType":"uint256"},{"name":"sourceTokenAddress","type":"address","indexed":false,"internalType":"address"},{"name":"from","type":"address","indexed":true,"internalType":"address"},{"name":"to","type":"address","indexed":true,"internalType":"address"},{"name":"value","type":"uint256","indexed":false,"internalType":"uint256"}],"anonymous":false},{"type":"event","name":"Initialized","inputs":[{"name":"version","type":"uint64","indexed":false,"internalType":"uint64"}],"anonymous":false},{"type":"event","name":"InitiateERC20","inputs":[{"name":"sourceChainId","type":"uint256","indexed":false,"internalType":"uint256"},{"name":"destChainId","type":"uint256","indexed":false,"internalType":"uint256"},{"name":"sourceTokenAddress","type":"address","indexed":false,"internalType":"address"},{"name":"destTokenAddress","type":"address","indexed":false,"internalType":"address"},{"name":"from","type":"address","indexed":true,"internalType":"address"},{"name":"to","type":"address","indexed":true,"internalType":"address"},{"name":"value","type":"uint256","indexed":false,"internalType":"uint256"}],"anonymous":false},{"type":"event","name":"InitiateETH","inputs":[{"name":"sourceChainId","type":"uint256","indexed":false,"internalType":"uint256"},{"name":"destChainId","type":"uint256","indexed":false,"internalType":"uint256"},{"name":"destTokenAddress","type":"address","indexed":false,"internalType":"address"},{"name":"from","type":"address","indexed":true,"internalType":"address"},{"name":"to","type":"address","indexed":true,"internalType":"address"},{"name":"value","type":"uint256","indexed":false,"internalType":"uint256"}],"anonymous":false},{"type":"event","name":"OwnershipTransferred","inputs":[{"name":"previousOwner","type":"address","indexed":true,"internalType":"address"},{"name":"newOwner","type":"address","indexed":true,"internalType":"address"}],"anonymous":false},{"type":"event","name":"Paused","inputs":[{"name":"account","type":"address","indexed":false,"internalType":"address"}],"anonymous":false},{"type":"event","name":"SetMinStakeAmountEvent","inputs":[{"name":"token","type":"address","indexed":true,"internalType":"address"},{"name":"amount","type":"uint256","indexed":false,"internalType":"uint256"},{"name":"chainId","type":"uint256","indexed":false,"internalType":"uint256"}],"anonymous":false},{"type":"event","name":"SetMinTransferAmount","inputs":[{"name":"_MinTransferAmount","type":"uint256","indexed":false,"internalType":"uint256"}],"anonymous":false},{"type":"event","name":"SetPerFee","inputs":[{"name":"chainId","type":"uint256","indexed":false,"internalType":"uint256"}],"anonymous":false},{"type":"event","name":"SetSupportTokenEvent","inputs":[{"name":"token","type":"address","indexed":true,"internalType":"address"},{"name":"isSupport","type":"bool","indexed":false,"internalType":"bool"},{"name":"chainId","type":"uint256","indexed":false,"internalType":"uint256"}],"anonymous":false},{"type":"event","name":"SetValidChainId","inputs":[{"name":"chainId","type":"uint256","indexed":false,"internalType":"uint256"},{"name":"isValid","type":"bool","indexed":false,"internalType":"bool"}],"anonymous":false},{"type":"event","name":"StakingERC20Event","inputs":[{"name":"user","type":"address","indexed":true,"internalType":"address"},{"name":"token","type":"address","indexed":true,"internalType":"address"},{"name":"chainId","type":"uint256","indexed":false,"internalType":"uint256"},{"name":"amount","type":"uint256","indexed":false,"internalType":"uint256"}],"anonymous":false},{"type":"event","name":"StakingETHEvent","inputs":[{"name":"user","type":"address","indexed":true,"internalType":"address"},{"name":"chainId","type":"uint256","indexed":false,"internalType":"uint256"},{"name":"amount","type":"uint256","indexed":false,"internalType":"uint256"}],"anonymous":false},{"type":"event","name":"Unpaused","inputs":[{"name":"account","type":"address","indexed":false,"internalType":"address"}],"anonymous":false},{"type":"event","name":"Withdraw","inputs":[{"name":"_user","type":"address","indexed":false,"internalType":"address"},{"name":"startPoolId","type":"uint256","indexed":false,"internalType":"uint256"},{"name":"EndPoolId","type":"uint256","indexed":false,"internalType":"uint256"},{"name":"chainId","type":"uint256","indexed":false,"internalType":"uint256"},{"name":"_token","type":"address","indexed":false,"internalType":"address"},{"name":"Amount","type":"uint256","indexed":false,"internalType":"uint256"},{"name":"Reward","type":"uint256","indexed":false,"internalType":"uint256"}],"anonymous":false},{"type":"event","name":"WithdrawToken","inputs":[{"name":"tokenAddress","type":"address","indexed":true,"internalType":"address"},{"name":"sender","type":"address","indexed":false,"internalType":"address"},{"name":"withdrawAddress","type":"address","indexed":false,"internalType":"address"},{"name":"amount","type":"uint256","indexed":false,"internalType":"uint256"}],"anonymous":false},{"type":"error","name":"AlreadyClaimed","inputs":[]},{"type":"error","name":"ChainIdIsNotSupported","inputs":[{"name":"id","type":"uint256","internalType":"uint256"}]},{"type":"error","name":"ChainIdMismatch","inputs":[{"name":"expected","type":"uint256","internalType":"uint256"},{"name":"actual","type":"uint256","internalType":"uint256"}]},{"type":"error","name":"ChainIdNotSupported","inputs":[{"name":"chainId","type":"uint256","internalType":"uint256"}]},{"type":"error","name":"EnforcedPause","inputs":[]},{"type":"error","name":"ErrorBlockChain","inputs":[]},{"type":"error","name":"ExpectedPause","inputs":[]},{"type":"error","name":"InvalidInitialization","inputs":[]},{"type":"error","name":"LessThanMinStakeAmount","inputs":[{"name":"minAmount","type":"uint256","internalType":"uint256"},{"name":"providedAmount","type":"uint256","internalType":"uint256"}]},{"type":"error","name":"LessThanMinTransferAmount","inputs":[{"name":"MinTransferAmount","type":"uint256","internalType":"uint256"},{"name":"value","type":"uint256","internalType":"uint256"}]},{"type":"error","name":"LessThanZero","inputs":[{"name":"amount","type":"uint256","internalType":"uint256"}]},{"type":"error","name":"NewPoolIsNotCreate","inputs":[{"name":"PoolIndex","type":"uint256","internalType":"uint256"}]},{"type":"error","name":"NoReward","inputs":[]},{"type":"error","name":"NotEnoughETH","inputs":[]},{"type":"error","name":"NotEnoughToken","inputs":[{"name":"ERC20Address","type":"address","internalType":"address"}]},{"type":"error","name":"NotInitializing","inputs":[]},{"type":"error","name":"OutOfRange","inputs":[{"name":"PoolId","type":"uint256","internalType":"uint256"},{"name":"PoolLength","type":"uint256","internalType":"uint256"}]},{"type":"error","name":"OwnableInvalidOwner","inputs":[{"name":"owner","type":"address","internalType":"address"}]},{"type":"error","name":"OwnableUnauthorizedAccount","inputs":[{"name":"account","type":"address","internalType":"address"}]},{"type":"error","name":"PoolIsCompleted","inputs":[{"name":"poolIndex","type":"uint256","internalType":"uint256"}]},{"type":"error","name":"ReentrancyGuardReentrantCall","inputs":[]},{"type":"error","name":"SafeERC20FailedOperation","inputs":[{"name":"token","type":"address","internalType":"address"}]},{"type":"error","name":"TokenIsAlreadySupported","inputs":[{"name":"token","type":"address","internalType":"address"},{"name":"isSupported","type":"bool","internalType":"bool"}]},{"type":"error","name":"TokenIsNotSupported","inputs":[{"name":"ERC20Address","type":"address","internalType":"address"}]},{"type":"error","name":"TransferETHFailed","inputs":[]},{"type":"error","name":"Zero","inputs":[{"name":"amount","type":"uint256","internalType":"uint256"}]},{"type":"error","name":"sourceChainIdError","inputs":[]},{"type":"error","name":"sourceChainIsDestChainError","inputs":[]}],"bytecode":{"object":"0x6080806040523460ce5760017f9b779b17422d0df92223018b32b4d1fa46e071723d6817e2486d003becc55f00555f5160206142bd5f395f51905f525460ff8160401c1660bf576002600160401b03196001600160401b03821601606d575b6040516141ea90816100d38239f35b6001600160401b0319166001600160401b039081175f5160206142bd5f395f51905f525581527fc7f505b2f371ae2175ee4913f4499e1f2633a7b5936321eed1cdaeb6115181d290602090a15f80605e565b63f92ee8a960e01b5f5260045ffd5b5f80fdfe6080806040526004361015610024575b50361561001a575f80fd5b610022613c5b565b005b5f905f3560e01c90816309dc480c146134e55750806310875a13146134bd57806313e8544e1461343257806318a7cca81461340a5780631ca2f173146133d25780631d31fac0146133b05780631f9eda8f1461337857806324237f84146131845780632c37388b14612e1a57806331d98b3b14612dfc578063325e5d43146117675780633338562c14612b8057806334d34ef51461294757806334fa7f70146127f45780633d18b912146125635780633f4ba83a146124e35780634663cdc8146124395780634dfaef84146121945780634eb7154214611ec157806352662af314611e5157806354dc027e14611e185780635a648bc514611a775780635b5b9ea2146119575780635bc65b40146119285780635c975abb146118f957806360ba33ff1461182a578063626417b5146117e6578063650c22761461177f5780636b7edb55146117675780636ec9f812146114ea5780636f77926b146113bc578063715018a6146113535780638456cb59146112e05780638da5cb5b146112ab578063929048b41461128257806394a009781461106e57806396f984e614610e7d578063a69bdf1614610d3b578063a734f06e14610d13578063ab0f9e1914610c64578063b92e639614610c09578063bb8fc7a814610be9578063cb314fab14610b53578063cb4f04ad14610b1a578063d73f14e514610a95578063dac2956814610a56578063dbb0481f14610a1d578063dd0c3460146109ff578063e207089314610849578063ec3e9da514610820578063f2fde38b146107f8578063f62a89cf146104ad578063f8c8765e146102b95763f8fcc2aa0361000f57346102b65760203660031901126102b6576020906040906001600160a01b036102a56134ff565b168152600e83522054604051908152f35b80fd5b50346102b65760803660031901126102b6576102d36134ff565b6024356001600160a01b038116908190036104a9576102f0613515565b6102f861352b565b915f5160206141955f395f51905f52549360ff8560401c16159467ffffffffffffffff8116801590816104a1575b6001149081610497575b15908161048e575b5061047f5767ffffffffffffffff1981166001175f5160206141955f395f51905f525561037c919086610453575b5061036f6140c9565b6103776140c9565b613ce1565b6103846140c9565b6001600160601b0360a01b600554161760055560018060a01b03166001600160601b0360a01b600454161760045560018060a01b03166001600160601b0360a01b6008541617600855621baf8063ffffffff1983541617825567016345785d8a000060015561271060025560016003556103fb5780f35b68ff0000000000000000195f5160206141955f395f51905f5254165f5160206141955f395f51905f52557fc7f505b2f371ae2175ee4913f4499e1f2633a7b5936321eed1cdaeb6115181d2602060405160018152a180f35b68ffffffffffffffffff191668010000000000000001175f5160206141955f395f51905f52555f610366565b63f92ee8a960e01b8752600487fd5b9050155f610338565b303b159150610330565b879150610326565b8280fd5b50346102b65760203660031901126102b657600435906104cb613d52565b6104d3613d8a565b338152600f60205260408120548210156107d557338152600f6020526104fc8260408320613557565b505460081c6001600160a01b0316808252600e60205260408220549092905f1981019081116107c15782338452600f602052600361053d8460408720613557565b50015492338552600f60205260016105588260408820613557565b50015493338652600f60205260ff6105738360408920613557565b5054166107b25782855b858110610701575061058e916136ff565b90338652600f60205260036105a68260408920613557565b500154878752600e6020526105cd60016105c38760408b206136ce565b5001918254613751565b90556105da823389613e5f565b50338652600f6020526040862054610665575b50905f5160206141355f395f51905f52949561060c8261064e94613751565b6040805133815260208101979097528601949094524660608601526001600160a01b0316608085015260a084019290925260c0830191909152819060e0820190565b0390a160015f5160206141755f395f51905f525580f35b338652600f60205260408620338752600f6020526040872054905f1982019182116106ed579380936106cd896106c75f5160206141355f395f51905f529b9c9660406106b761060c9861064e9c613557565b5093338152600f60205220613557565b90613db1565b338a52600f6020526106e160408b20613e19565b935093505095946105ed565b634e487b7160e01b88526011600452602488fd5b9050878752600e602052610726600261071d8360408b206136ce565b50015483613720565b670de0b6b3a7640000810290808204670de0b6b3a764000014901517156106ed5790610783610771600193846107688560408f8f908152600e602052206136ce565b50015490613733565b95670de0b6b3a76400008704906136ff565b94898952600e6020526107a8600361079e8460408d206136ce565b50019182546136ff565b905501839061057d565b63374c934360e11b8652600486fd5b634e487b7160e01b83526011600452602483fd5b604491338252600f60205260408220549063abe5c32f60e01b8352600452602452fd5b50346102b65760203660031901126102b65761081d6108156134ff565b61037761402d565b80f35b50346102b657806003193601126102b6576008546040516001600160a01b039091168152602090f35b50346102b65760603660031901126102b6576108636134ff565b61086b613671565b6044359163ffffffff83168084036109fb5761089260018060a01b03600454163314613809565b6001600160a01b038216808652600a602052604086205490949060ff166109e157848652600a6020526108d484604088209060ff801983541691151516179055565b848652600e6020526040862063ffffffff87541683039063ffffffff82116106ed577ff37cdf0b5a2a780dfbdbd1bb6f8a3bcdf62c8941ba001debfa56dfd8eab89b6c95936109c3936109676109db97946109be9463ffffffff6040519261093b846135be565b1682528460208301528b60408301528c60608301528c60808301528c60a08301528c60c0830152613899565b888a52600e60205263ffffffff61098660408c2092828d54169061387f565b60405193610993856135be565b84521660208301528860408301528960608301528960808301528960a08301528960c0830152613899565b613bf6565b60408051911515825246602083015290918291820190565b0390a280f35b63411befff60e11b86526004859052831515602452604486fd5b8480fd5b50346102b657806003193601126102b6576020600254604051908152f35b50346102b65760203660031901126102b6576020906040906001600160a01b03610a456134ff565b168152600b83522054604051908152f35b50346102b65760203660031901126102b65760209060ff906040906001600160a01b03610a816134ff565b168152600a84522054166040519015158152f35b50346102b65760403660031901126102b6577f756e8389496652aad1bd6bd9ea1e81b5b53341a798eb468701bb68403594c9506040600435610ad5613671565b610aea60018060a01b03600454163314613809565b8185526009602052610b0a818487209060ff801983541691151516179055565b825191825215156020820152a180f35b50346102b65760203660031901126102b6576020906040906001600160a01b03610b426134ff565b168152600f83522054604051908152f35b50346102b65760403660031901126102b657610b6d6134ff565b60243590610b8660018060a01b03600454163314613809565b8115610bd55760407f6559cfa4c9d2d533663fa9b68e86d2bb216ac0d2bf462b0529ab01525dce08379160018060a01b031692838552600d60205280828620558151908152466020820152a280f35b637a11cf7560e01b83526004829052602483fd5b50806003193601126102b6576020610bff613c5b565b6040519015158152f35b50346102b65760203660031901126102b6577f39315f035b4e62ef103e9d2372379ecc1fda660b2b8bf306693ff8a07ed1dd3f6020600435610c5660018060a01b03600454163314613809565b80600155604051908152a180f35b50346102b65760403660031901126102b657610c7e6134ff565b7ff37cdf0b5a2a780dfbdbd1bb6f8a3bcdf62c8941ba001debfa56dfd8eab89b6c6109db610caa613671565b610cbf60018060a01b03600454163314613809565b6001600160a01b038416808652600a60205260408620805460ff191660ff841515161790559381610d04575b5060408051911515825246602083015290918291820190565b610d0d90613bf6565b5f610ceb565b50346102b657806003193601126102b65760206040515f5160206141155f395f51905f528152f35b50346102b657806003193601126102b65760065490610d598261395a565b90805b838110610d755760405180610d718582613680565b0390f35b8190825b338452600f6020526040842054811015610e3157338452600f602052610da28160408620613557565b505460081c6001600160a01b0316610db9836136e7565b905460039190911b1c6001600160a01b031614610ddb575b6001905b01610d79565b91338452600f60205260ff610df38460408720613557565b505416610e2857610e20600191338652600f6020526003610e178660408920613557565b500154906136ff565b929050610dd1565b91600190610dd5565b50600191610e3e826136e7565b848060a01b0391549060031b1c169060405191610e5a836135ee565b82526020820152610e6b828661386b565b52610e76818561386b565b5001610d5c565b50806003193601126102b657610e91613d52565b610e99613d8a565b5f5160206141155f395f51905f528152600d6020526040812054341061103e575f5160206141155f395f51905f528152600e60205260408120541561102a575f5160206141155f395f51905f528152600e60205260408120545f198101908082116107c1575f5160206141155f395f51905f528352600e60205263ffffffff610f2583604086206136ce565b5054164210156110185750610f9d600191338452600f602052610f7f6040852060405190610f528261360a565b8682525f5160206141155f395f51905f5260208301528360408301528660608301523460808301526139b5565b5f5160206141155f395f51905f528452600e602052604084206136ce565b5001610faa3482546136ff565b90555f5160206141155f395f51905f528152600b60205260408120610fd03482546136ff565b90556040514681523460208201527fc30647c83f1ae8cba53f299401139cccd78519cd0cdf3937716ee01df27d509f60403392a260015f5160206141755f395f51905f525580f35b637d58ebb960e01b8352600452602482fd5b637d58ebb960e01b81526001600452602490fd5b5f5160206141155f395f51905f528152600d60205260408120546327500c6d60e21b825260045234602452604490fd5b506101003660031901126102b65760043560243561108a613515565b9061109361352b565b9361109c613541565b9060a435916110a9613d52565b6110b1613d8a565b6110c660018060a01b03600454163314613809565b46840361126a57858252600960205260ff60408320541615611256576001600160a01b03169581808080868b5af16110fc613a37565b5015611247575f5160206141155f395f51905f528252600b60205260408220611126848254613751565b90556005546001600160a01b031690813b156104a957829161012483926040519485938492630f5c3d0560e31b84528c60048501528a602485015260018060a01b038c1660448501525f5160206141155f395f51905f52606485015260018060a01b031660848401528c60a48401528860c484015260c43560e484015260e4356101048401525af1801561123c57611227575b50506040805194855260208501929092526001600160a01b0390921690830152606082015230907feb0a2e1a2d528efe194dccba78e1f08be6e84e330206377d56c2a2fb492e5df79080608081015b0390a360015f5160206141755f395f51905f5255602060405160018152f35b611232828092613626565b6102b657806111b9565b6040513d84823e3d90fd5b6389a360eb60e01b8252600482fd5b632ef6974160e11b82526004869052602482fd5b630432cec160e31b8252600484905246602452604482fd5b50346102b657806003193601126102b6576007546040516001600160a01b039091168152602090f35b50346102b657806003193601126102b6575f5160206140f55f395f51905f52546040516001600160a01b039091168152602090f35b50346102b657806003193601126102b6576112f961402d565b611301613d8a565b600160ff195f5160206141555f395f51905f525416175f5160206141555f395f51905f52557f62e78cea01bee320cd4e420270b5ea74000d11b0c9f74754ebdbfc544b05a2586020604051338152a180f35b50346102b657806003193601126102b65761136c61402d565b5f5160206140f55f395f51905f5280546001600160a01b0319811690915581906001600160a01b03167f8be0079c531659141344cd1fd0a4f28419497f9722a3daafe3b4186f6b6457e08280a380f35b50346102b65760203660031901126102b6576001600160a01b036113de6134ff565b168152600f6020526040812080546113f581613648565b906114036040519283613626565b80825260208201809385526020852085915b83831061149357868587604051928392602084019060208552518091526040840192915b818110611447575050500390f35b91935091602060a0600192608087518051151583528580851b03858201511685840152604081015160408401526060810151606084015201516080820152019401910191849392611439565b600460206001926040516114a68161360a565b855460ff811615158252858060a01b039060081c16838201528486015460408201526002860154606082015260038601546080820152815201920192019190611415565b50346102b6576101203660031901126102b6576004356024359161150c613515565b9261151561352b565b61151d613541565b9260a435906001600160a01b0382168083036117635760c4359361153f613d8a565b61155460018060a01b03600454163314613809565b46860361175457878352600960205260ff6040842054161561174057818352600a60205260ff6040842054161561172c576040516370a0823160e01b8152306004820152602081602481865afa801561172157869085906116e7575b6115bc92501015613b8d565b6001600160a01b038716906115d2868284613fac565b828452600b602052604084206115e9878254613751565b90556005546001600160a01b0316998a3b156109fb578985809493610124936040519788968795630f5c3d0560e31b875260048701528d60248701526044860152606485015260018060a01b0316608484015260018060a01b03169c8d60a48401528960c484015260e43560e4840152610104356101048401525af1801561123c576116d2575b50506040805195865260208601939093526001600160a01b039384169285019290925291166060830152608082015230907f7add2d08613c9e66b48e0cd9188091059a1eeeceaeed10d42cb1720aa8dec7679060a090a3602060405160018152f35b6116dd828092613626565b6102b65780611670565b50506020813d602011611719575b8161170260209383613626565b8101031261171557856115bc91516115b0565b5f80fd5b3d91506116f5565b6040513d86823e3d90fd5b6305fd61ad60e01b83526004829052602483fd5b632ef6974160e11b83526004889052602483fd5b631a26aa4d60e21b8352600483fd5b5080fd5b50346102b65761081d61177936613584565b916137e6565b50346102b65760203660031901126102b6576004356117a960018060a01b03600454163314613809565b620f4240811015611763576020817f342f865a411cdd799cc2fde1e27981fc427f5c8a31c79066a6bcc0db11729da092600255604051908152a180f35b50346102b65760203660031901126102b657600435906006548210156102b6576020611811836136e7565b905460405160039290921b1c6001600160a01b03168152f35b50346102b65760403660031901126102b6576118446134ff565b9060243591611851613d8a565b611859613d52565b6001600160a01b0316808252600a602052604082205490919060ff16156118e75760409061188984303386614060565b828152600b6020522061189d8382546136ff565b90556040519182527f4b3f81827ede20c81afbf1bb77b954afcdcae24d391d99042310cb1d9210dd5760203393a360015f5160206141755f395f51905f5255602060405160018152f35b6024916305fd61ad60e01b8252600452fd5b50346102b657806003193601126102b657602060ff5f5160206141555f395f51905f5254166040519015158152f35b50346102b65760203660031901126102b65760ff60406020926004358152600984522054166040519015158152f35b50346102b65760403660031901126102b6576119c460e0916119776134ff565b8160c0604051611986816135be565b8281528260208201528260408201528260608201528260808201528260a0820152015260018060a01b03168152600e602052604060243591206136ce565b506040516119d1816135be565b81549163ffffffff831692838352602083019063ffffffff8160201c168252604084019060018060a01b039060401c1681526001830154906060850191825263ffffffff6002850154936080870194855260c060ff600460038901549860a08b01998a52015416970196151587526040519788525116602087015260018060a01b0390511660408601525160608501525160808401525160a083015251151560c0820152f35b50346102b657806003193601126102b657611a90613d52565b611a98613d8a565b805b600654811015611e0357611aad816136e7565b905460039190911b1c6001600160a01b0316808352600e602052604083205415611def57338352600f6020526040832054805b611aee575050600101611a9a565b9092905f1981018181116107c157338352600f60205284611b128260408620613557565b505460081c6001600160a01b031614611b4e575b505b8015611b3a579092905f190180611ae0565b634e487b7160e01b82526011600452602482fd5b338352600f60205260ff611b658260408620613557565b505416611de957848352600e60205260408320545f198101908111611dd55783338552600f6020526003611b9c8460408820613557565b50015492338652600f6020526001611bb78260408920613557565b50015493845b848110611d36575082611bcf916136ff565b90338752600f602052611be58160408920613557565b50600160ff19825416179055338752600f6020526003611c088260408a20613557565b500154898852600e602052611c2560016105c38760408c206136ce565b9055611c3282338b613e5f565b50338752600f6020526040872054611cb0575b5081611c645f5160206141355f395f51905f52959493611ca793613751565b6040805133815260208101969096528501939093524660608501526001600160a01b038916608085015260a084019290925260c0830191909152819060e0820190565b0390a15f611b26565b338752600f60205260408720338852600f6020526040882054905f198201918211611d225793611ca793611d028a6106c7849660406106b7611c64985f5160206141355f395f51905f529e9d9c613557565b338a52600f602052611d1660408b20613e19565b93509394955050611c45565b634e487b7160e01b89526011600452602489fd5b909192898852600e602052611d5c6002611d538460408c206136ce565b50015484613720565b670de0b6b3a7640000810290808204670de0b6b3a76400001490151715611d225791600191611dcd600361079e848f9998978e611dbf611dad6040938e8452600e6020528b610768878787206136ce565b97670de0b6b3a76400008904906136ff565b9b8152600e602052206136ce565b905501611bbd565b634e487b7160e01b84526011600452602484fd5b50611b28565b637d58ebb960e01b83526004839052602483fd5b5060015f5160206141755f395f51905f525580f35b50346102b65760203660031901126102b6576020906040906001600160a01b03611e406134ff565b168152600c83522054604051908152f35b5060403660031901126102b657600435906001600160a01b03821682036102b6576020611ea683611e8d60018060a01b0360085416331461375e565b611e95613d8a565b611e9d613d52565b60243590613a76565b60015f5160206141755f395f51905f52556040519015158152f35b50346102b65760c03660031901126102b657600435602435611ee1613515565b90611eea61352b565b611ef2613541565b90611efb613d52565b611f03613d8a565b46850361218557828652600960205260ff60408720541615612171576001600160a01b038416808752600a602052604087205490969060ff161561215d576040516370a0823160e01b81523060048201526020816024818b5afa90811561123c57829161212b575b50611f7a60a43530338b614060565b6040516370a0823160e01b8152306004820152906020826024818c5afa80156121205783906120ec575b611fae9250613751565b96808252600b60205260408220611fc68982546136ff565b9055611fe362989680611fdb6002548b613720565b048099613751565b93818352600c60205260408320611ffb8a82546136ff565b90556005546001600160a01b031691823b156120e857906101048492836040519586948593635478424f60e11b85524660048601528c6024860152604485015260018060a01b038a16606485015233608485015260018060a01b03169d8e60a48501528a60c485015260e48401525af1801561123c576120d3575b50506040805195865260208601939093526001600160a01b039384169285019290925291166060830152608082015233907f24136187bad583830e5c55416af2a551e1750b2b95b0e997565fba1badf10ed3908060a08101611208565b6120de828092613626565b6102b65780612076565b8380fd5b506020823d602011612118575b8161210660209383613626565b8101031261171557611fae9151611fa4565b3d91506120f9565b6040513d85823e3d90fd5b90506020813d602011612155575b8161214660209383613626565b8101031261171557515f611f6b565b3d9150612139565b6305fd61ad60e01b81526004879052602490fd5b632ef6974160e11b86526004839052602486fd5b631a26aa4d60e21b8652600486fd5b50346102b65760403660031901126102b6576121ae6134ff565b602435906121ba613d52565b6121c2613d8a565b6001600160a01b0316808352600a602052604083205490919060ff161561172c57818352600d60205260408320548110612417576040516370a0823160e01b815230600482015290602082602481865afa9182156117215784926123e1575b5061222e90303385614060565b6040516370a0823160e01b815230600482015290602082602481865afa80156117215784906123ad575b6122629250613751565b818352600e60205260408320541561239957818352600e60205260408320545f1981019080821161238557838552600e60205263ffffffff6122a783604088206136ce565b5054164210156123735750612305600191338652600f6020526122f460408720604051906122d48261360a565b8882528760208301528360408301528860608301528660808301526139b5565b848652600e602052604086206136ce565b50016123128282546136ff565b9055818352600b6020526040832061232b8282546136ff565b90556040519046825260208201527f1a9bb68de16395364f4a0d198852c1b2c4d1e8e5a628e5fd273284a44cd8a6db60403392a360015f5160206141755f395f51905f525580f35b637d58ebb960e01b8552600452602484fd5b634e487b7160e01b85526011600452602485fd5b637d58ebb960e01b83526001600452602483fd5b506020823d6020116123d9575b816123c760209383613626565b81010312611715576122629151612258565b3d91506123ba565b9091506020813d60201161240f575b816123fd60209383613626565b8101031261171557519061222e612221565b3d91506123f0565b908252600d60205260408220546327500c6d60e21b8352600452602452604490fd5b50346102b65760403660031901126102b6576124536134ff565b6001600160a01b03168152600e60205260408120805460243592908310156102b65760e061248184846136ce565b50805490600181015490600281015460ff6004600384015493015416926040519463ffffffff8116865263ffffffff8160201c16602087015260018060a01b039060401c1660408601526060850152608084015260a0830152151560c0820152f35b50346102b657806003193601126102b6576124fc61402d565b5f5160206141555f395f51905f525460ff8116156125545760ff19165f5160206141555f395f51905f52557f5db9ee0a495bf2e6ff9c91a7834c1ba4fdd244a5e8aa4e537bd38aeae4b073aa6020604051338152a180f35b638dfc202b60e01b8252600482fd5b50346102b657806003193601126102b6576006546125808161395a565b9082905b8082106125995760405180610d718582613680565b8390845b338652600f60205260408620548110156127a657338652600f6020526125c68160408820613557565b505460081c6001600160a01b03166125dd856136e7565b905460039190911b1c6001600160a01b0316146125ff575b6001905b0161259d565b338652600f60205260ff6126168260408920613557565b50541661279e57612626846136e7565b905460039190911b1c6001600160a01b03168652600e60205260408620545f19810190811161278a57338752600f60205260036126668360408a20613557565b50015490338852600f60205260016126818460408b20613557565b50015481811161277f5791905b80831061269d575050506125f5565b9091946126a9876136e7565b905460039190911b1c6001600160a01b03168952600e60205260408920545f19810190811161276b5786116127575761274e60019161274889846107688b8f6040906126f4866136e7565b868060a01b0391549060031b1c168152600e60205261272d6127278d600261271e878787206136ce565b50015490613720565b966136e7565b868060a01b0391549060031b1c168152600e602052206136ce565b906136ff565b9501919061268e565b637d58ebb960e01b89526004869052602489fd5b634e487b7160e01b8a52601160045260248afd5b5050506001906125f9565b634e487b7160e01b87526011600452602487fd5b6001906125f9565b50916001916127b4826136e7565b848060a01b0391549060031b1c1690604051916127d0836135ee565b825260208201526127e1828661386b565b526127ec818561386b565b500190612584565b50346102b65761280336613584565b9161281c60018060a09694961b0360085416331461375e565b612824613d8a565b61282c613d52565b6001600160a01b0316808252600b602052604082205490939083116128ca577f9ca7c1e047552a8048d924a5a8d3c150eb861086a72a9100e5f19d1176c1b746926040838660609552600b60205220612886828254613751565b9055612893818387613fac565b604080513381526001600160a01b039093166020840152820152a260015f5160206141755f395f51905f5255602060405160018152f35b60405162461bcd60e51b815260206004820152604960248201527f506f6f6c4d616e6167657220776974686472617745746846726f6d427269646760448201527f653a20496e73756666696369656e7420746f6b656e2062616c616e636520696e6064820152680818dbdb9d1c9858dd60ba1b608482015260a490fd5b50346102b65760203660031901126102b657600435612964613d52565b61296c613d8a565b338252600f6020526040822054811015612b5b57338252600f6020526129958160408420613557565b505460081c6001600160a01b0316808352600e60205260408320549091905f198101908111611dd5578392338552600f60205260036129d78460408820613557565b50015492338652600f60205260016129f28260408920613557565b50015493338752600f60205260ff612a0d8360408a20613557565b505416612b4c57849695965b848110612ab6575091836001612a6b8994612a597f36b99ff884a288b9b46a49442e3c4c89464469fae98da480f519664f99fc4a6f9a9b61064e986136ff565b50338b52600f60205260408b20613557565b500155612a79823383613e5f565b506040805133815260208101969096528501939093524660608501526001600160a01b03909216608084015260a0830191909152819060c0820190565b838752600e602052612ad0600261071d8360408b206136ce565b670de0b6b3a7640000810290808204670de0b6b3a764000014901517156106ed57908798612b41600361079e846040612b32612b208f9960016107688f868e849f928a9352600e602052206136ce565b96670de0b6b3a76400008804906136ff565b9d8b8152600e602052206136ce565b905501969596612a19565b63374c934360e11b8752600487fd5b338252600f602052604082205463abe5c32f60e01b8352600491909152602452604490fd5b5060203660031901126102b65760043567ffffffffffffffff81116117635736602382011215611763578060040135612bb881613648565b91612bc66040519384613626565b818352602460e0602085019302820101903682116109fb57602401915b818310612d6857505050612c0260018060a01b03600454163314613809565b815b8151811015612d64576001600160a01b036040612c21838561386b565b51015116808452600e60205260408420545f19810190811161238557907fe31e15753cd173232924147d9c429fccfb91705d3778d5eb2735a5d302ea5e81604060019493838852600e6020526004612c7b82848b206136ce565b5001805460ff19168717905580612d2d575b838852600e602052612d1b63ffffffff612ca983858c206136ce565b505460201c16858a52600e602052838a208a63ffffffff8a612ce28789612cd3858754168961387f565b958d8152600e602052206136ce565b50015491875194612cf2866135be565b8552166020840152878684015260608301528a60808301528a60a08301528a60c0830152613899565b8151908152466020820152a201612c04565b838852600c60205281882054848952600e6020526002612d4f83858c206136ce565b500155838852600c6020528782812055612c8d565b8280f35b60e0833603126109fb5760405190612d7f826135be565b612d8884613660565b8252612d9660208501613660565b602083015260408401356001600160a01b0381168103611715576040830152606084013560608301526080840135608083015260a084013560a083015260c0840135908115158203612df8578260209260c060e0950152815201920191612be3565b8680fd5b50346102b657806003193601126102b6576020600354604051908152f35b50346102b657806003193601126102b657612e33613d52565b612e3b613d8a565b805b600654811015611e0357612e50816136e7565b905460039190911b1c6001600160a01b0316808352600e602052604083205415611def57338352600f6020526040832054805b612e91575050600101612e3d565b9092905f1981018181116107c157338352600f60205284612eb58260408620613557565b505460081c6001600160a01b031614612edd575b505b8015611b3a579092905f190180612e83565b338352600f60205260ff612ef48260408620613557565b50541661317e57848352600e60205260408320545f198101908111611dd55783338552600f6020526003612f2b8460408820613557565b50015492338652600f6020526001612f468260408920613557565b50015493845b848110613108575082612f5e916136ff565b90338752600f602052612f748160408920613557565b50805460ff19166001179055861561307557338752600f6020526003612f9d8260408a20613557565b500154898852600e602052612fba60016105c38760408c206136ce565b9055612fc782338b613e5f565b50338752600f6020526040872054613003575b5081611c645f5160206141355f395f51905f52959493612ff993613751565b0390a15b5f612ec9565b338752600f60205260408720338852600f6020526040882054905f198201918211611d225793612ff9936130558a6106c7849660406106b7611c64985f5160206141355f395f51905f529e9d9c613557565b338a52600f60205261306960408b20613e19565b93509394955050612fda565b6131009150918360016130b67f36b99ff884a288b9b46a49442e3c4c89464469fae98da480f519664f99fc4a6f979695335f52600f60205260405f20613557565b5001556130c481338b613e5f565b506040805133815260208101959095528401929092524660608401526001600160a01b038816608084015260a0830191909152819060c0820190565b0390a1612ffd565b909192898852600e6020526131256002611d538460408c206136ce565b670de0b6b3a7640000810290808204670de0b6b3a76400001490151715611d225791600191613176600361079e848f9998978e611dbf611dad6040938e8452600e6020528b610768878787206136ce565b905501612f4c565b50612ecb565b60803660031901126117155760243560043561319e613515565b6131a661352b565b906131af613d52565b6131b7613d8a565b46830361336957835f52600960205260ff60405f205416156133565760015480341061334057505f5160206141155f395f51905f525f52600b60205260405f206132023482546136ff565b90556298968061321460025434613720565b04936132208534613751565b5f5160206141155f395f51905f525f52600c60205260405f206132448782546136ff565b90556005546001600160a01b031693843b1561171557604051635478424f60e11b8152466004820152602481018490525f5160206141155f395f51905f5260448201526001600160a01b03858116606483015233608483015290911660a4820181905260c4820183905260e4820197909752935f90859061010490829084905af1908115613335577f0c2b5a57887e542335dea57bfc17d53dc16f67d219e0cc41ec1970283524abcc9461120892613325575b506040519384933397859094939260609260808301968352602083015260018060a01b031660408201520152565b5f61332f91613626565b5f6132f7565b6040513d5f823e3d90fd5b6358f8331360e11b5f526004523460245260445ffd5b83632ef6974160e11b5f5260045260245ffd5b631a26aa4d60e21b5f5260045ffd5b34611715576020366003190112611715576001600160a01b036133996134ff565b165f52600b602052602060405f2054604051908152f35b34611715575f36600319011261171557602063ffffffff5f5416604051908152f35b34611715576020366003190112611715576001600160a01b036133f36134ff565b165f52600d602052602060405f2054604051908152f35b34611715575f366003190112611715576004546040516001600160a01b039091168152602090f35b346117155760403660031901126117155761344b6134ff565b6001600160a01b03165f908152600f60205260409020805460243591908210156117155760a09161347b91613557565b5080549060018101549060036002820154910154916040519360ff811615158552600180871b039060081c166020850152604084015260608301526080820152f35b34611715575f366003190112611715576005546040516001600160a01b039091168152602090f35b34611715575f366003190112611715576020906001548152f35b600435906001600160a01b038216820361171557565b604435906001600160a01b038216820361171557565b606435906001600160a01b038216820361171557565b608435906001600160a01b038216820361171557565b8054821015613570575f5260205f209060021b01905f90565b634e487b7160e01b5f52603260045260245ffd5b6060906003190112611715576004356001600160a01b038116810361171557906024356001600160a01b0381168103611715579060443590565b60e0810190811067ffffffffffffffff8211176135da57604052565b634e487b7160e01b5f52604160045260245ffd5b6040810190811067ffffffffffffffff8211176135da57604052565b60a0810190811067ffffffffffffffff8211176135da57604052565b90601f8019910116810190811067ffffffffffffffff8211176135da57604052565b67ffffffffffffffff81116135da5760051b60200190565b359063ffffffff8216820361171557565b60243590811515820361171557565b60206040818301928281528451809452019201905f5b8181106136a35750505090565b825180516001600160a01b031685526020908101518186015260409094019390920191600101613696565b8054821015613570575f52600560205f20910201905f90565b6006548110156135705760065f5260205f2001905f90565b9190820180921161370c57565b634e487b7160e01b5f52601160045260245ffd5b8181029291811591840414171561370c57565b811561373d570490565b634e487b7160e01b5f52601260045260245ffd5b9190820391821161370c57565b1561376557565b60405162461bcd60e51b815260206004820152604d60248201527f506f6f6c4d616e616765723a206f6e6c7957697468647261774d616e6167657260448201527f206f6e6c79207769746864726177206d616e616765722063616e2063616c6c2060648201526c3a3434b990333ab731ba34b7b760991b608482015260a490fd5b90613806929161380160018060a01b0360085416331461375e565b613e5f565b50565b1561381057565b60405162461bcd60e51b815260206004820152602d60248201527f506f6f6c4d616e616765723a206f6e6c792072656c617965722063616e20646f60448201526c2074686973206f70657261746560981b6064820152608490fd5b80518210156135705760209160051b010190565b9063ffffffff8091169116019063ffffffff821161370c57565b8054600160401b8110156135da576138b6916001820181556136ce565b613947578151815460208085015160408087015168010000000000000000600160e01b03911b1667ffffffff000000009190921b1663ffffffff9093166001600160e01b03199092169190911791909117178155606082015160018201556080820151600282015560a0820151600382015560c0909101516004909101805460ff191691151560ff16919091179055565b634e487b7160e01b5f525f60045260245ffd5b9061396482613648565b6139716040519182613626565b8281528092613982601f1991613648565b01905f5b82811061399257505050565b6020906040516139a1816135ee565b5f81525f8382015282828501015201613986565b8054600160401b8110156135da576139d291600182018155613557565b919091613947576080816139f7600393511515859060ff801983541691151516179055565b60208101518454610100600160a81b03191660089190911b610100600160a81b031617845560408101516001850155606081015160028501550151910155565b3d15613a71573d9067ffffffffffffffff82116135da5760405191613a66601f8201601f191660200184613626565b82523d5f602084013e565b606090565b814710613b12575f5160206141155f395f51905f525f52600b60205260405f20613aa1838254613751565b90556001600160a01b03165f80808085855af1613abc613a37565b5015613b0c5760607f9ca7c1e047552a8048d924a5a8d3c150eb861086a72a9100e5f19d1176c1b746915f5160206141155f395f51905f52936040519133835260208301526040820152a2600190565b50505f90565b60405162461bcd60e51b815260206004820152604760248201527f506f6f6c4d616e6167657220776974686472617745746846726f6d427269646760448201527f653a20696e73756666696369656e74204554482062616c616e636520696e20636064820152661bdb9d1c9858dd60ca1b608482015260a490fd5b15613b9457565b60405162461bcd60e51b815260206004820152603460248201527f506f6f6c4d616e616765723a20696e73756666696369656e7420746f6b656e206044820152733130b630b731b2903337b9103a3930b739b332b960611b6064820152608490fd5b600654600160401b8110156135da57600181016006556006548110156135705760065f527ff652222313e28459528d920b65115c16c04f3efc82aaedc97be59f3f377c0d3f0180546001600160a01b0319166001600160a01b03909216919091179055565b613c63613d8a565b613c6b613d52565b5f5160206141155f395f51905f525f52600b60205260405f20613c8f3482546136ff565b90556040513481525f5160206141155f395f51905f527f4b3f81827ede20c81afbf1bb77b954afcdcae24d391d99042310cb1d9210dd5760203393a360015f5160206141755f395f51905f5255600190565b6001600160a01b03168015613d3f575f5160206140f55f395f51905f5280546001600160a01b0319811683179091556001600160a01b03167f8be0079c531659141344cd1fd0a4f28419497f9722a3daafe3b4186f6b6457e05f80a3565b631e4fbdf760e01b5f525f60045260245ffd5b60025f5160206141755f395f51905f525414613d7b5760025f5160206141755f395f51905f5255565b633ee5aeb560e01b5f5260045ffd5b60ff5f5160206141555f395f51905f525416613da257565b63d93c066560e01b5f5260045ffd5b919061394757808203613dc2575050565b600381613de060ff83945416859060ff801983541691151516179055565b80548454610100600160a81b031916610100600160a81b0390911617845560018101546001850155600281015460028501550154910155565b80548015613e4b575f190190613e2f8282613557565b613947576003815f809355826001820155826002820155015555565b634e487b7160e01b5f52603160045260245ffd5b6001600160a01b03165f818152600a602052604090205460ff1615613f9a57805f52600b602052613e968360405f20541015613b8d565b805f52600b60205260405f20613ead848254613751565b90555f5160206141155f395f51905f528103613f0f5750814710613f00575f918291829182916001600160a01b03165af1613ee6613a37565b5015613ef157600190565b6389a360eb60e01b5f5260045ffd5b632c1d501360e11b5f5260045ffd5b9291906040516370a0823160e01b8152306004820152602081602481885afa80156133355783915f91613f65575b5010613f5257613f4d9293613fac565b600190565b836311745b6160e21b5f5260045260245ffd5b9150506020813d602011613f92575b81613f8160209383613626565b81010312611715578290515f613f3d565b3d9150613f74565b6305fd61ad60e01b5f5260045260245ffd5b916040519163a9059cbb60e01b5f5260018060a01b031660045260245260205f60448180865af19060015f511482161561400c575b60405215613fec5750565b635274afe760e01b5f9081526001600160a01b0391909116600452602490fd5b90600181151661402457823b15153d15161690613fe1565b503d5f823e3d90fd5b5f5160206140f55f395f51905f52546001600160a01b0316330361404d57565b63118cdaa760e01b5f523360045260245ffd5b6040516323b872dd60e01b5f9081526001600160a01b039384166004529290931660245260449390935260209060648180865af19060015f51148216156140b1575b6040525f60605215613fec5750565b90600181151661402457823b15153d151616906140a2565b60ff5f5160206141955f395f51905f525460401c16156140e557565b631afcd79f60e31b5f5260045ffdfe9016d09d72d40fdae2fd8ceac6b6234c7706214fd39c1cd1e609a0528c199300000000000000000000000000eeeeeeeeeeeeeeeeeeeeeeeeeeeeeeeeeeeeeeeee7ec1c5ac03ffbc42e14868f1c00af28ca9cc9e4f02bec224142d7cc1ad64ca8cd5ed15c6e187e77e9aee88184c21f4f2182ab5827cb3b7e07fbedcd63f033009b779b17422d0df92223018b32b4d1fa46e071723d6817e2486d003becc55f00f0c57e16840df040f15088dc2f81fe391c3923bec73e23a9662efc9c229c6a00a2646970667358221220afc10c1babe1df90a397c04aa9724bd36e82b9b0d512ec2052b4c032441fcf6964736f6c634300081e0033f0c57e16840df040f15088dc2f81fe391c3923bec73e23a9662efc9c229c6a00","linkReferences":{}},"methodIdentifiers":{"BridgeFinalizeERC20(uint256,uint256,address,address,address,address,uint256,uint256,uint256)":"6ec9f812","BridgeFinalizeETH(uint256,uint256,address,address,address,uint256,uint256,uint256)":"94a00978","BridgeInitiateERC20(uint256,uint256,address,address,address,uint256)":"4eb71542","BridgeInitiateETH(uint256,uint256,address,address)":"24237f84","ClaimAllReward()":"2c37388b","ClaimbyID(uint256)":"34d34ef5","CompletePoolAndNew((uint32,uint32,address,uint256,uint256,uint256,bool)[])":"3338562c","DepositAndStakingERC20(address,uint256)":"4dfaef84","DepositAndStakingETH()":"96f984e6","ETH_ADDRESS()":"a734f06e","FeePoolValue(address)":"54dc027e","FundingPoolBalance(address)":"dbb0481f","IsSupportToken(address)":"dac29568","IsSupportedChainId(uint256)":"5bc65b40","MinStakeAmount(address)":"1ca2f173","MinTransferAmount()":"09dc480c","PerFee()":"dd0c3460","Pools(address,uint256)":"4663cdc8","QuickSendAssertToUser(address,address,uint256)":"325e5d43","SupportTokens(uint256)":"626417b5","Users(address,uint256)":"13e8544e","WithdrawAll()":"5a648bc5","WithdrawByID(uint256)":"f62a89cf","WithdrawPoolManagerAssetTo(address,address,uint256)":"6b7edb55","assertBalanceMessager()":"929048b4","depositErc20ToBridge(address,uint256)":"60ba33ff","depositEthToBridge()":"bb8fc7a8","fetchFundingPoolBalance(address)":"1f9eda8f","getPool(address,uint256)":"5b5b9ea2","getPoolLength(address)":"f8fcc2aa","getPrincipal()":"a69bdf16","getReward()":"3d18b912","getUser(address)":"6f77926b","getUserLength(address)":"cb4f04ad","initialize(address,address,address,address)":"f8c8765e","messageManager()":"10875a13","owner()":"8da5cb5b","pause()":"8456cb59","paused()":"5c975abb","periodTime()":"1d31fac0","relayerAddress()":"18a7cca8","renounceOwnership()":"715018a6","setMinStakeAmount(address,uint256)":"cb314fab","setMinTransferAmount(uint256)":"b92e6396","setPerFee(uint256)":"650c2276","setSupportERC20Token(address,bool)":"ab0f9e19","setSupportToken(address,bool,uint32)":"e2070893","setValidChainId(uint256,bool)":"d73f14e5","stakingMessageNumber()":"31d98b3b","transferOwnership(address)":"f2fde38b","unpause()":"3f4ba83a","withdrawErc20FromBridge(address,address,uint256)":"34fa7f70","withdrawEthFromBridge(address,uint256)":"52662af3","withdrawManager()":"ec3e9da5"},"id":44}