{"abi":[{"type":"constructor","inputs":[],"stateMutability":"nonpayable"},{"type":"function","name":"claimMessage","inputs":[{"name":"sourceChainId","type":"uint256","internalType":"uint256"},{"name":"destChainId","type":"uint256","internalType":"uint256"},{"name":"sourceTokenAddress","type":"address","internalType":"address"},{"name":"destTokenAddress","type":"address","internalType":"address"},{"name":"_from","type":"address","internalType":"address"},{"name":"_to","type":"address","internalType":"address"},{"name":"_value","type":"uint256","internalType":"uint256"},{"name":"_fee","type":"uint256","internalType":"uint256"},{"name":"_nonce","type":"uint256","internalType":"uint256"}],"outputs":[],"stateMutability":"nonpayable"},{"type":"function","name":"claimMessageStatus","inputs":[{"name":"","type":"bytes32","internalType":"bytes32"}],"outputs":[{"name":"","type":"bool","internalType":"bool"}],"stateMutability":"view"},{"type":"function","name":"initialize","inputs":[{"name":"initialOwner","type":"address","internalType":"address"},{"name":"_poolManagerAddress","type":"address","internalType":"address"}],"outputs":[],"stateMutability":"nonpayable"},{"type":"function","name":"nextMessageNumber","inputs":[],"outputs":[{"name":"","type":"uint256","internalType":"uint256"}],"stateMutability":"view"},{"type":"function","name":"owner","inputs":[],"outputs":[{"name":"","type":"address","internalType":"address"}],"stateMutability":"view"},{"type":"function","name":"poolManagerAddress","inputs":[],"outputs":[{"name":"","type":"address","internalType":"address"}],"stateMutability":"view"},{"type":"function","name":"renounceOwnership","inputs":[],"outputs":[],"stateMutability":"nonpayable"},{"type":"function","name":"sendMessage","inputs":[{"name":"sourceChainId","type":"uint256","internalType":"uint256"},{"name":"destChainId","type":"uint256","internalType":"uint256"},{"name":"sourceTokenAddress","type":"address","internalType":"address"},{"name":"destTokenAddress","type":"address","internalType":"address"},{"name":"_from","type":"address","internalType":"address"},{"name":"_to","type":"address","internalType":"address"},{"name":"_value","type":"uint256","internalType":"uint256"},{"name":"_fee","type":"uint256","internalType":"uint256"}],"outputs":[],"stateMutability":"nonpayable"},{"type":"function","name":"sentMessageStatus","inputs":[{"name":"","type":"bytes32","internalType":"bytes32"}],"outputs":[{"name":"","type":"bool","internalType":"bool"}],"stateMutability":"view"},{"type":"function","name":"transferOwnership","inputs":[{"name":"newOwner","type":"address","internalType":"address"}],"outputs":[],"stateMutability":"nonpayable"},{"type":"event","name":"Initialized","inputs":[{"name":"version","type":"uint64","indexed":false,"internalType":"uint64"}],"anonymous":false},{"type":"event","name":"MessageClaimed","inputs":[{"name":"sourceChainId","type":"uint256","indexed":false,"internalType":"uint256"},{"name":"destChainId","type":"uint256","indexed":false,"internalType":"uint256"},{"name":"sourceTokenAddress","type":"address","indexed":false,"internalType":"address"},{"name":"destTokenAddress","type":"address","indexed":false,"internalType":"address"},{"name":"_messageHash","type":"bytes32","indexed":true,"internalType":"bytes32"},{"name":"_nonce","type":"uint256","indexed":false,"internalType":"uint256"}],"anonymous":false},{"type":"event","name":"MessageSent","inputs":[{"name":"sourceChainId","type":"uint256","indexed":false,"internalType":"uint256"},{"name":"destChainId","type":"uint256","indexed":false,"internalType":"uint256"},{"name":"sourceTokenAddress","type":"address","indexed":false,"internalType":"address"},{"name":"destTokenAddress","type":"address","indexed":false,"internalType":"address"},{"name":"_from","type":"address","indexed":true,"internalType":"address"},{"name":"_to","type":"address","indexed":true,"internalType":"address"},{"name":"_fee","type":"uint256","indexed":false,"internalType":"uint256"},{"name":"_value","type":"uint256","indexed":false,"internalType":"uint256"},{"name":"_nonce","type":"uint256","indexed":false,"internalType":"uint256"},{"name":"_messageHash","type":"bytes32","indexed":true,"internalType":"bytes32"}],"anonymous":false},{"type":"event","name":"OwnershipTransferred","inputs":[{"name":"previousOwner","type":"address","indexed":true,"internalType":"address"},{"name":"newOwner","type":"address","indexed":true,"internalType":"address"}],"anonymous":false},{"type":"error","name":"InvalidInitialization","inputs":[]},{"type":"error","name":"MessageAlreadySent","inputs":[{"name":"messageHash","type":"bytes32","internalType":"bytes32"}]},{"type":"error","name":"NotInitializing","inputs":[]},{"type":"error","name":"OwnableInvalidOwner","inputs":[{"name":"owner","type":"address","internalType":"address"}]},{"type":"error","name":"OwnableUnauthorizedAccount","inputs":[{"name":"account","type":"address","internalType":"address"}]},{"type":"error","name":"ReentrancyGuardReentrantCall","inputs":[]},{"type":"error","name":"ZeroAddressNotAllowed","inputs":[]}],"bytecode":{"object":"0x6080806040523460ce5760017f9b779b17422d0df92223018b32b4d1fa46e071723d6817e2486d003becc55f00555f5160206109fd5f395f51905f525460ff8160401c1660bf576002600160401b03196001600160401b03821601606d575b60405161092a90816100d38239f35b6001600160401b0319166001600160401b039081175f5160206109fd5f395f51905f525581527fc7f505b2f371ae2175ee4913f4499e1f2633a7b5936321eed1cdaeb6115181d290602090a15f80605e565b63f92ee8a960e01b5f5260045ffd5b5f80fdfe6080806040526004361015610012575f80fd5b5f3560e01c90816336e3d8d71461065a57508063485cc955146104e1578063715018a61461047a5780637ae1e828146102ad5780637f8d98c31461027e5780638da5cb5b1461024a578063a8f0849e146100fd578063b837dbe9146100e1578063e6a13f30146100b95763f2fde38b1461008a575f80fd5b346100b55760203660031901126100b5576100b36100a6610685565b6100ae610856565b6107e5565b005b5f80fd5b346100b5575f3660031901126100b5576001546040516001600160a01b039091168152602090f35b346100b5575f3660031901126100b55760205f54604051908152f35b346100b5576101003660031901126100b55760043560243561011d61069b565b916101266106b1565b9261012f6106c7565b926101386106dd565b9360c4359460e4359561015660018060a01b036001541633146106f3565b6001600160a01b03821696871561023b5786866101998761018b8d86888b9a5f549b8c94604051998a9860208a019c8d61075d565b03601f1981018352826107af565b519020985f198414610227577fb7f33a96ca66e7a604eaea9cd873498ec3775d6b36cf3cec44c8df6b467b2e469660e096600186015f558b5f52600260205260405f20600160ff19825416179055604051998a5260208a015260018060a01b0316604089015260018060a01b03166060880152608087015260a086015260c085015260018060a01b031692a4005b634e487b7160e01b5f52601160045260245ffd5b6342bcdf7f60e11b5f5260045ffd5b346100b5575f3660031901126100b5575f5160206108b55f395f51905f52546040516001600160a01b039091168152602090f35b346100b55760203660031901126100b5576004355f526002602052602060ff60405f2054166040519015158152f35b346100b5576101203660031901126100b5576004356024356102cd61069b565b906102d66106b1565b926102df6106c7565b6102e76106dd565b610104359161030160018060a01b036001541633146106f3565b60027f9b779b17422d0df92223018b32b4d1fa46e071723d6817e2486d003becc55f00541461046b576103738761018b8588888b9760027f9b779b17422d0df92223018b32b4d1fa46e071723d6817e2486d003becc55f0055604051978896602088019a60e4359560c435958d61075d565b51902094855f52600360205260ff60405f205416610416577f410ce732ac401991bca377a8f57d056d2ae1c15d9819a9ce066f1b8e2a1b207b9460a094875f52600360205260405f20600160ff198254161790556040519485526020850152600180861b03166040840152600180851b031660608301526080820152a260017f9b779b17422d0df92223018b32b4d1fa46e071723d6817e2486d003becc55f0055005b60405162461bcd60e51b815260206004820152602760248201527f4d6573736167654d616e616765723a206d65737361676520616c72656164792060448201526618db185a5b595960ca1b6064820152608490fd5b633ee5aeb560e01b5f5260045ffd5b346100b5575f3660031901126100b557610492610856565b5f5160206108b55f395f51905f5280546001600160a01b031981169091555f906001600160a01b03167f8be0079c531659141344cd1fd0a4f28419497f9722a3daafe3b4186f6b6457e08280a3005b346100b55760403660031901126100b5576104fa610685565b6024356001600160a01b038116908190036100b5575f5160206108d55f395f51905f525460ff8160401c16159267ffffffffffffffff821680159081610652575b6001149081610648575b15908161063f575b506106305767ffffffffffffffff1982166001175f5160206108d55f395f51905f525561058b9184610604575b50610583610889565b6100ae610889565b6bffffffffffffffffffffffff60a01b600154161760015560015f556105ad57005b68ff0000000000000000195f5160206108d55f395f51905f5254165f5160206108d55f395f51905f52557fc7f505b2f371ae2175ee4913f4499e1f2633a7b5936321eed1cdaeb6115181d2602060405160018152a1005b68ffffffffffffffffff191668010000000000000001175f5160206108d55f395f51905f52558461057a565b63f92ee8a960e01b5f5260045ffd5b9050158561054d565b303b159150610545565b85915061053b565b346100b55760203660031901126100b5576020906004355f526003825260ff60405f20541615158152f35b600435906001600160a01b03821682036100b557565b604435906001600160a01b03821682036100b557565b606435906001600160a01b03821682036100b557565b608435906001600160a01b03821682036100b557565b60a435906001600160a01b03821682036100b557565b156106fa57565b60405162461bcd60e51b815260206004820152603560248201527f4d6573736167654d616e616765723a206f6e6c7920746f6b656e206272696467604482015274652063616e20646f2074686973206f70657261746560581b6064820152608490fd5b90815260208101919091526001600160a01b03918216604082015291811660608301529182166080820152911660a082015260c081019190915260e08101919091526101008101919091526101200190565b90601f8019910116810190811067ffffffffffffffff8211176107d157604052565b634e487b7160e01b5f52604160045260245ffd5b6001600160a01b03168015610843575f5160206108b55f395f51905f5280546001600160a01b0319811683179091556001600160a01b03167f8be0079c531659141344cd1fd0a4f28419497f9722a3daafe3b4186f6b6457e05f80a3565b631e4fbdf760e01b5f525f60045260245ffd5b5f5160206108b55f395f51905f52546001600160a01b0316330361087657565b63118cdaa760e01b5f523360045260245ffd5b60ff5f5160206108d55f395f51905f525460401c16156108a557565b631afcd79f60e31b5f5260045ffdfe9016d09d72d40fdae2fd8ceac6b6234c7706214fd39c1cd1e609a0528c199300f0c57e16840df040f15088dc2f81fe391c3923bec73e23a9662efc9c229c6a00a2646970667358221220ce4828925ee7e11be03265639bf2e7d36ecc342c10cc97dcb80dec738bff1c6d64736f6c634300081e0033f0c57e16840df040f15088dc2f81fe391c3923bec73e23a9662efc9c229c6a00","linkReferences":{}},"methodIdentifiers":{"claimMessage(uint256,uint256,address,address,address,address,uint256,uint256,uint256)":"7ae1e828","claimMessageStatus(bytes32)":"36e3d8d7","initialize(address,address)":"485cc955","nextMessageNumber()":"b837dbe9","owner()":"8da5cb5b","poolManagerAddress()":"e6a13f30","renounceOwnership()":"715018a6","sendMessage(uint256,uint256,address,address,address,address,uint256,uint256)":"a8f0849e","sentMessageStatus(bytes32)":"7f8d98c3","transferOwnership(address)":"f2fde38b"},"id":42}